:1000000000800020BD010000596800005968000010
:100010005968000059680000596800002568000010
:100020002568000025680000256800005968000068
:100030005968000025680000596800001568000034
:1000400059680000596800005968000059680000AC
:10005000596800005968000059680000596800009C
:10006000596800005968000059680000596800008C
:10007000596800005968000059680000596800007C
:10008000596800005968000059680000596800006C
:10009000596800005968000059680000596800005C
:1000A000A135000059680000596800005968000037
:1000B000596800005968000059680000596800003C
:1000C000596800005968000059680000596800002C
:1000D000596800005968000059680000596800001C
:1000E000596800005968000059680000596800000C
:1000F000596800005D7B000059680000E17600004F
:1001000059680000597F00005968000059680000D4
:1001100059680000596800005968000059680000DB
:1001200059680000596800005968000059680000CB
:100130005968000059680000755C000059680000AB
:1001400059680000596800005968000059680000AB
:10015000596800005968000059680000596800009B
:10016000B5060000A1810000596800005968000030
:10017000596800005968000059680000596800007B
:10018000596800005968000059680000596800006B
:10019000596800005968000059680000396D000076
:1001A000896D0000116E0000CD6E0000516F0000DF
:1001B000596800005968000059680000544B4CF21F
:1001C000205210B51A804DF628121A8000BF00BFC9
:1001D00006F046FB4F4B4FF010621A604E4A9A6091
:1001E0004E4ADA604E4B1A6812F4807204D14D49BF
:1001F0000A604FF4A8521A604B4B1A7802F00802BA
:10020000D2B21AB11A7842F008021A70474B484825
:10021000484C2A221A700023474A02E01959995083
:10022000043399188142F9D3444B454A002101E037
:1002300043F8041B9342FBD34249434800231A5816
:100240005A500433B3F5DE7FF9D1404B404A802148
:1002500003F8011B9342FBD13A4A3E4B1A603E4BD6
:100260000A221A703D4B24221A70A02203F8012C96
:100270003B4A137803F00203DBB2002BF9D0384A73
:10028000137803F01003DBB2002BF9D1344A137852
:1002900003F00C03082BFAD1324B03221A704022D0
:1002A0005A702F4A137803F02003DBB2002BF9D0E9
:1002B0002B4A137803F04003DBB2002BF9D02A4B12
:1002C0002A4A1A6002225A60294B20221A70244AB4
:1002D000137803F00C030C2BFAD1264A264B1A6034
:1002E000264B4BF67F321A60072243F8042C62B685
:1002F00006F0D2FE0B4B1B68DC0702D5204806F047
:100300003FFE0BF085FE06F0B1FA08F07BFCFEE73D
:100310000E20054030800440823F04000100002B85
:1003200010D0034014D0034002D0074000E0074043
:10033000988DFF1F1C2701006087FF1F988DFF1FEE
:10034000FC92FF1F0082FF1F0000000000E400E09D
:100350005FE400E008ED00E0005006400140064088
:10036000064006400440064044800440000003115B
:1003700000400640C01005000480044014E000E086
:100380008E67D355FFFFFFFFFFFFFFFFFFFFFFFF5C
:10039000FFFFFFFFFFFFFFFFFFFFFFFFFFFFFFFF6D
:1003A000FFFFFFFFFFFFFFFFFFFFFFFFFFFFFFFF5D
:1003B000FFFFFFFFFFFFFFFFFFFFFFFFFFFFFFFF4D
:1003C000FFFFFFFFFFFFFFFFFFFFFFFFFFFFFFFF3D
:1003D000FFFFFFFFFFFFFFFFFFFFFFFFFFFFFFFF2D
:1003E000FFFFFFFFFFFFFFFFFFFFFFFFFFFFFFFF1D
:1003F000FFFFFFFFFFFFFFFFFFFFFFFFFFFFFFFF0D
:10040000FFFFFFFFFFFFFFFFFFFFFFFFFEFFFFFFFD
:1004100008B548F69850074BC1F6FF701B1A062B1B
:1004200000D808BD40F20003C0F20003002BF8D052
:100430009847F6E79B8DFF1F08B548F6985048F699
:100440009853C1F6FF70C1F6FF731B1A9B1003EBA4
:10045000D373591000D108BD40F20002C0F200026F
:10046000002AF8D09047F6E710B548F69854C1F640
:10047000FF74237873B9FFF7CBFF40F20003C0F29B
:1004800000032BB142F21C70C0F20100AFF30080F8
:100490000123237010BD00BF08B540F20003C0F275
:1004A00000034BB142F21C7048F69C51C0F20100AF
:1004B000C1F6FF71AFF3008048F69850C1F6FF70A7
:1004C00003682BB140F20003C0F2000303B1984768
:1004D000BDE80840B0E700BF42F2107007F0D2BBA1
:1004E00008B5064800F0D6FA10B9044800F03EFC02
:1004F0000248BDE8084000F079BE00BFB48DFF1F80
:1005000010B5054C204600F05DFB0449044A204626
:10051000BDE810400BF05EBDB48DFF1F690C0000FC
:100520006087FF1F10B5002303710C4B0C22198844
:1005300001230B4208D1094A19431180084A118846
:1005400021EA0303138010BD04795B000134013AF2
:1005500004719BB2EDD1FF23037110BD108EFF1FFC
:100560000C8EFF1F2DE9F041984603790B2B0446B2
:10057000174634D8CEB23046012106F03DFD25792C
:10058000184B19485E55194B44F2506223F8152058
:10059000012303FA05F503881D43154B05801A68EE
:1005A0000C214F4301FB08F112F480022780618087
:1005B00011D1196841F4800119600E4B4FF6FF719B
:1005C00019605A609A6042F6A27243F8042C02F550
:1005D000803243F8042C084B4FF480721A60207963
:1005E000BDE8F0812A8EFF1F0C8EFF1F128EFF1FA9
:1005F0003C8004400460034008E100E003790B2BD9
:1006000010D8094A012101FA03F11388C9430B40AC
:100610001380064A1088014011801BB9044B4FF427
:1006200080721A60704700BF0C8EFF1F108EFF1F74
:1006300088E100E00C2359430388994203DB438897
:100640009942B8BF0B4602790B2A9CBF014921F899
:1006500012307047128EFF1F13B504790B2C02461F
:1006600016D8B1F5087F04DB02B0BDE81040FFF7F3
:10067000E1BF1388528821EAE1700092B428A8BF34
:10068000B4200021B42208F093FA024B23F814009E
:1006900002B010BD128EFF1F03790B2B06D8044A3F
:1006A000108840FA03F000F0010070470020704706
:1006B0000C8EFF1F70B5334A334C118894F900300B
:1006C00041FA03F111F0010F154606D02F4A00211F
:1006D000D05C06F065FC0C2323702D4B2C88197818
:1006E00000234DB223E0581944FA00F6013316F006
:1006F000010F1CD0254B264C185C2270012106F0FE
:100700004FFC2378204A59B21370224A32F8111054
:10071000214A106808181060204A106809181160F2
:10072000013342F6A37142F80C1C237070BD5A18B5
:1007300050B20B28D7DD164B17491A700A68C2F55C
:100740006A3303F5C073B3F5966F05DB4EF6602090
:100750008342A8BF034601E04FF496639A180A60EB
:100760000E4908681B180B600D4B42F6A371196007
:100770000C4B9A4204D9084A00231360044A1370B0
:1007800070BD00BF0C8EFF1F6487FF1F2A8EFF1FE6
:100790000E8EFF1F128EFF1F088EFF1F0C6003407E
:1007A000006003407FA9030030B585B0044600F027
:1007B00009F960B366238DF804300B2300258DF80A
:1007C0000530204641F20103ADF80630ADF808507F
:1007D00000F0F6F8216B8DF80A00E06B0BF004F9DD
:1007E000616B0BF0BFFA2B46CDF80B002A469DF843
:1007F000050003E0C95C521892B20133834201A99B
:10080000F8DBE069ADF8082003681B69984705B07C
:1008100030BDFFFF074B10B504460360806B08B185
:1008200008F0DEF80023A363204600F09DF8204680
:1008300010BD00BFC01A010010B50446FFF7EAFF63
:10084000204608F0CDF8204610BD70B5C56A0446B4
:100850000E46084629460BF08DFB30B9A56A304696
:1008600029460BF069FB00B93546616B28460BF051
:10087000C5F9216B0BF0BAF8E0630BF085FB20346F
:1008800001462046BDE87040FFF7E6BED1F80710EC
:10089000FFF7DBBF10B504462030FFF7FDFE38B18F
:1008A000A36B2BB119682046BDE81040FFF7CDBF00
:1008B00010BDFFFFF7B50D9D0C9E009504461F4629
:1008C000092300F063F825461C4B45F8203B2846D9
:1008D000FFF728FE012F01D1032300E00423236446
:1008E000089B1749E362099BA3620A9B23630B9B46
:1008F000304663630BF016FB20B9042008F06CF857
:10090000066000E000200023A063E36328464FF464
:10091000FA63216C4FF47A72FFF724FEA36B204632
:1009200013B1FFF7B7FF02E0E16BFFF78EFF204640
:10093000012100F043F82046FEBD00BFC01A0100AF
:1009400000C0794438B500F1200405462046FFF781
:1009500055FE2846002100F031F82046FFF79CFEA6
:1009600080F00100C0B238BD014B0360704700BF8A
:10097000E01A010070477047034B10B5044603604E
:1009800008F02EF8204610BDE01A010038B50446E4
:1009900000252371049B25730648A3600B68206023
:1009A000E161084665612261DB6921469847257649
:1009B000204638BDE01A0100007970470173704786
:1009C00000697047037E73B504460BB900201AE036
:1009D0000D4B1B680193019D43698068EE1A0BF073
:1009E000B5F80AF097FC02460B46002007490AF0CA
:1009F0000FFE0022064B0AF0E1FC0AF079FF864266
:100A0000E4D9656101207CBD0090FF1F0000F03F2C
:100A100000408F4001767047014B0360704700BF74
:100A2000001B0100034B10B50446036007F0D8FF1C
:100A3000204610BD001B010037B50C4D2B680093FC
:100A4000009A8368D31A8B4204460DD90D2006F014
:100A5000C7FAD0F1010138BF00210D2006F0A0FA3D
:100A60002B680193019BA3603EBD00BF0090FF1F58
:100A700001717047064B10B50360002304460371F3
:100A8000836001210D2006F0B7FA204610BD00BF9B
:100A9000001B01000079704703790BB1642101E06C
:100AA0004FF47A71FFF7C8BF704708B107F098BFDD
:100AB000704708B107F094BF704708B107F090BFC6
:100AC000704708B107F08CBF704708B50368C9B21A
:100AD0001B68984708BDFFFF70B50E4C0D462046B9
:100AE000FD211646FFF7F1FF284607F0A5F8236819
:100AF000C1B21B6820469847284607F09DF8236836
:100B0000024629465B682046984720463146FFF753
:100B1000DCFF70BDA492FF1F10B505480C46FE21F6
:100B2000FFF7D3FF61782046BDE8104006F048BBD0
:100B3000A492FF1F38B506480C46FE211546FFF764
:100B4000C4FF20462946BDE8384006F039BB00BF47
:100B5000A492FF1F002310B51A4603E0C45C1219CB
:100B600092B201338B42F9DB104610BD30B5144B05
:100B700085B01B680193019D836C40F6B832EB1A77
:100B80009342044619D90123072141F201028DF84D
:100B900008308DF80E3002A800238DF80910ADF84A
:100BA0000A20ADF80C30FFF7D5FF2368ADF80C0034
:100BB0001B69204602A99847A56405B030BD00BF57
:100BC0000090FF1F70B50446FFF754FF0F4B002540
:100BD0002360E56025616561A561E5612562656267
:100BE000A562E56225636563A5632565E5636564C4
:100BF0002564182007F0F0FE064600F0BDFD2665CE
:100C0000A56484F84C50204670BD00BF301B010025
:100C1000F8B5C3680669C269F61A8369D31A04462F
:100C2000B6109F10002504E053F82500FFF78AFE58
:100C30000135BD42A369F7DBE361636A0025A36266
:100C400006E053F8250010B103685B699847013549
:100C5000B542E368F5DB2361002384F84C3063641C
:100C6000E3632364F8BDFFFF0F4B10B50446036038
:100C7000006D10B103685B68984700232365204628
:100C8000FFF7C6FF206BFFF71CFF606AFFF715FF39
:100C9000A069FFF70EFFE068FFF707FF2046FFF7A8
:100CA000BBFE204610BD00BF301B010010B504463E
:100CB000FFF7DAFF204607F093FE204610BD0269D9
:100CC000C368D31A70B505469E10002406E0EB6891
:100CD00053F8240003681B6898470134B442F6DBDC
:100CE00070BD38B500230C460B714B71084649782E
:100CF0001546FFF72FFF2B1AA0805842584138BDE8
:100D0000826A436AD31A70B505469E10002406E035
:100D10006B6A53F8240003689B6998470134B44216
:100D2000F6DB70BD13B569238DF8003008238DF80C
:100D3000013041F20103ADF802300B78672B08BF98
:100D40000B898DF806304B7804468DF80730082162
:100D500000236846ADF80430FFF7FCFE2368ADF8C9
:100D600004001B692046694698471CBD7FB50446B0
:100D7000FFF790FE0646002839D1206D00F01EFDD9
:100D800050B934E020462946AA88FFF7AAFF58B98F
:100D9000206D00F005FD2AE0206D00F0FBFC0378DB
:100DA000652B0546F4D1EDE72046A979FFF760FEF3
:100DB00020462946FFF7B6FF76238DF8043041F22E
:100DC00001030A21ADF8063001A84FF081438DF8E8
:100DD0000510CDF80A30ADF80860FFF7BBFE2368B8
:100DE000ADF808001B69204601A99847D0E77FBDF0
:100DF0002DE9F047CB889CB005460C460E2B00F23F
:100E0000F181DFE813F007016E0195017B01EF012D
:100E1000A9013B00A0018B010F0058015B019E005E
:100E2000BC012B01C26983690026D31A4FEAA308CB
:100E30003046464503DA002840F0D081AAE1002878
:100E400040F0CC81442007F0C7FDD4F81610228969
:100E50000091D4F81210D4F80E300191D4F81A1081
:100E60000291D4F81E100391D4F822100491D4F802
:100E70000A1005912946FFF71DFDAFE1826A436A1A
:100E80000026D31A4FEAA3083046464503DA002865
:100E900040F0A4818CE1002840F0A081B02007F050
:100EA0009BFD8046D4F812002789D4F80A600AF026
:100EB00031FACDE90001D4F80E000AF009FAD4F8AD
:100EC00016300493D4F81A300593D4F83A300693C8
:100ED000D4F83E30CDE90201D4F81E0007930AF0A1
:100EE000F7F9CDE90801D4F822000AF013FACDE9A8
:100EF0000A01D4F826000AF00DFACDE90C01D4F865
:100F00002A000AF007FAD4F82E301093D4F83230C1
:100F10001193D4F836301293D4F842301393D4F8A6
:100F200046301493D4F84A301593D4F84E30CDE9B6
:100F30000E011693404629463A46334601F06CFAB4
:100F40004CE1826A436A0026D31A4FEAA30830466E
:100F5000464503DA002840F0418134E1002840F0A2
:100F60003D81B02007F038FD8046D4F81200278973
:100F7000D4F80A600AF0CEF9CDE90001D4F80E00E9
:100F80000AF0A6F9D4F816300493D4F81A30059371
:100F9000D4F83A300693D4F83E30CDE90201D4F8C3
:100FA0001E0007930AF094F9CDE90801D4F8220055
:100FB0000AF0B0F9CDE90A01D4F826000AF0AAF93E
:100FC000CDE90C01D4F82A000AF0A4F9D4F82E30A7
:100FD0001093D4F832301193D4F836301293D4F8F9
:100FE00042301393D4F846301493D4F84A30159312
:100FF000D4F84E301693D4F85230CDE90E01179341
:10100000D4F856304046189329463A46334600F005
:1010100065FFE3E0C36B002B40F0E080436AD1F84A
:10102000162053F82280D1F81A20542053F8227049
:1010300007F0D2FCD4F80E1022890091D4F81210D7
:10104000D4F80A300191D4F81E10CDF8088004912C
:1010500003972946064601F0E1FD2AE0436AD1F8EC
:10106000162053F822A0D1F81A2053F82290D1F874
:101070001E2053F82280D1F82220642053F82270D9
:1010800007F0AAFCD4F80E1022890091D4F81210AF
:10109000D4F80A300191D4F82610CDF808A00691B2
:1010A000CDF80C90CDF8108005972946064605F03E
:1010B00079F9EE6392E01CAE0A2301E01CAE0B232B
:1010C00006F8013D242007F087FCD4F80A30228975
:1010D0000093D4F80E3029460193334601F052FEB6
:1010E0007CE0242007F078FCD4F80E1022890091CF
:1010F000D4F80A30294601F0AFFE6FE04FF4927049
:1011000007F06AFC618AD4F80A2000910646D4F8F8
:101110000E30294602F0EEF86E645FE0242007F0FE
:101120005BFC29462289D4F80E3004F085F855E09E
:10113000FC2007F051FC2946D4F80A20D4F80E30E0
:1011400004F008F94AE0AC2007F046FC2946D4F840
:101150000A2004F019FF41E0382007F03DFCD4F8E4
:10116000121022890091D4F81610D4F80E30019193
:10117000D4F81A100291294604F0AAFF2EE0242088
:1011800007F02AFC2946D4F80A20D4F80E3004F0DF
:10119000DDFF23E0AB69278953F82600FFF710FC39
:1011A000B7EB000EDEF1000050EB0E00013640E61A
:1011B0006B6A278953F82600FFF702FC391A484268
:1011C0004841013661E66B6A278953F82600FFF72C
:1011D000F7FB3A1A504250410136B9E628462146FB
:1011E000FFF7A0FD1CB0BDE8F087FFFF2DE9F0413F
:1011F000044688B0FFF750FC206D00F059FB2046F4
:10120000FFF748FC002840F05381206D00F0A6FB5A
:10121000002840F04D8155E1206D00F0BBFA0546F5
:1012200029462046AA88FFF75CFD002800F02F81A0
:101230002B780F2B00F0938010D8072B2CD005D8DB
:10124000022B36D0062B40F0228148E00B2B65D0D4
:101250000C2B68D0082B40F01A8155E0512B55D04B
:1012600006D8132B00F0CD80142B40F01081EAE05B
:10127000672B19D0752B00F08880652B40F0078113
:101280002046A979FFF7F4FB2046FFF703FC30B9AD
:101290002046FFF7BDFC02E0AB7984F84C302046D5
:1012A0002946FFF73FFDF2E020462946FFF7A0FD63
:1012B000EDE0E269A369D31A9F1000260CE0A36950
:1012C00053F82600FFF77CFBAB7998424FEA86087B
:1012D00001D1A36938E00136BE42F0DBD7E0A26A53
:1012E000636AD31A9F1000260BE0636A53F8260046
:1012F000FFF766FBAB7998424FEA860800D13EE0E3
:101300000136BE42F1DBC2E0E06B08E0E06B002892
:1013100000F0BD80294601F0B7FAB8E0606C002803
:1013200000F0B58012E0626B236BD31A9F10002689
:1013300012E0236B53F82600FFF742FBAB7998428B
:101340004FEA860807D1236B53F808000368294643
:101350005B6898479BE00136BE42EADB97E0A26AF1
:10136000636AD31A9F1000260CE0636A53F82600C4
:10137000FFF726FBAB7998424FEA860801D1636AF2
:10138000E2E70136BE42F0DB81E011238DF8043044
:101390001A238DF8053041F20103ADF80630E6213D
:1013A00000234A48ADF8083002F008FBE721CDF8E9
:1013B0000A00464802F002FBE821CDF80E0043483F
:1013C00002F0FCFAE921CDF81200404802F0F6FAEA
:1013D000EA21CDF816003D4802F0F0FA9DF80550DC
:1013E000CDF81A00294601A8FFF7B4FB2946ADF84D
:1013F000080001A805F0E4FE0D213548FFF765FB64
:1014000045E02769E368FF1ABF10002618E0E3688B
:1014100053F82600FFF7D0FAAB7983424FEA8608EB
:101420004CD1E36853F82600FFF7CAFAEB799842EB
:1014300044D1E368297A53F80800FFF7EBFA26E075
:10144000BE42E4DB23E02769E368FF1ABF100026F1
:101450001BE0E36853F82600FFF7AEFAEB7983420E
:101460004FEA86082CD1E36853F82600FFF7A8FA64
:10147000AB79984224D1E368297A53F80800D5F86B
:10148000092003689B68984701E0BE42E1DB206DBC
:1014900000F086F994F84C30A3B12046FFF70FFC1A
:1014A0002046FFF72DFC206C60B103F07DFF09E0C2
:1014B000206D00F083F90028ECD0ADE60136BFE7DF
:1014C0000136E2E708B0BDE8F08100BF298FFF1FB9
:1014D000A492FF1FF8B590E84800F61AB61014BFA2
:1014E000334601239B1904460F466FF0404603D252
:1014F000B34238BF1E4626B1B00007F06DFA05466C
:1015000000E0354662682368D31A9B1005EB83011F
:101510003A6809B145F8232094E882007F1ABF1089
:1015200003D02846BA000BF035F905EB8707206891
:10153000FFF7BBFA0437256005EB86056760A560F9
:10154000F8BDF8B590E84800F61AB61014BF334657
:1015500001239B1904460F466FF0404603D2B34265
:1015600038BF1E4626B1B00007F036FA054600E047
:10157000354662682368D31A9B1005EB83013A68ED
:1015800009B145F8232094E882007F1ABF1003D0E8
:101590002846BA000BF0FEF805EB87072068FFF736
:1015A00088FA0437256005EB86056760A560F8BDFD
:1015B000F8B590E84800F61AB61014BF3346012378
:1015C0009B1904460F466FF0404603D2B34238BF22
:1015D0001E4626B1B00007F0FFF9054600E035468B
:1015E00062682368D31A9B1005EB83013A6809B13E
:1015F00045F8232094E882007F1ABF1003D02846C4
:10160000BA000BF0C7F805EB87072068FFF755FA1B
:101610000437256005EB86056760A560F8BD38B521
:1016200042688468A24203460D4606D0096802B1AA
:1016300011605A6804325A6038BDFFF7B9FF38BDEF
:10164000F8B590E84800F61AB61014BF33460123E7
:101650009B1904460F466FF0404603D2B34238BF91
:101660001E4626B1B00007F0B7F9054600E0354642
:1016700062682368D31A9B1005EB83013A6809B1AD
:1016800045F8232094E882007F1ABF1003D0284633
:10169000BA000BF07FF805EB87072068FFF711FA17
:1016A0000437256005EB86056760A560F8BD1FB5AA
:1016B0000369426901919342044605D003B1196060
:1016C00023690433236103E00C3001A9FFF702FF13
:1016D0000198FFF771F90238072834D8DFE800F0E5
:1016E0003133331616331F04E369216A019A8B42A2
:1016F000039205D003B11A60E3690433E36122E089
:1017000004F1180003A9FFF71CFF1CE004A9019BCA
:1017100004F1240041F8043DFFF781FF13E0636BFF
:10172000A16B019A8B42039205D003B11A60636BDF
:101730000433636307E004F1300003A9FFF780FF7F
:1017400001E0019B23641FBD054B10B504460360F7
:10175000006908B107F046F900232361204610BD57
:10176000601B010010B50446FFF7EEFF204607F0AE
:1017700037F9204610BDFFFF054A026000220271C2
:101780000261C260826042718271C271704700BFA3
:10179000601B010003790BB1006970471846704760
:1017A00010B50446006908B107F01CF90023236155
:1017B0002371A371E371E360A36010BD00797047EA
:1017C0000B78132B34D00FD8082B22D005D8062B3A
:1017D00027D022D8022B2FD123E00C2B1FD00F2B88
:1017E0001FD00B2B28D118E0652B16D006D8512B13
:1017F00011D0642B0DD0142B1ED11BE06C2B08D004
:10180000752B10D0672B17D10E23C36001234371B2
:1018100014E00E2311E012230FE007230DE008234C
:101820000BE00B2309E00623C3600123C37105E02D
:10183000092302E00D2300E00023C360C068704765
:1018400070B50446C0680E4607F0C8F80023054688
:1018500002E0C25CEA540133B3422069F9DB08B10B
:1018600007F0C0F8256170BDCB880E2B1ED8DFE8CD
:1018700003F00E1919101D170A12190819190C195D
:101880001B00262311E052230FE05A230DE02223F0
:101890000BE0142309E00E23C3600123037105E06C
:1018A0001E2302E0122300E02A23C360C0687047B1
:1018B0002DE9F843044605F075FC00284CD0237947
:1018C000002B49D144E005F06DFC002833D0E368DB
:1018D000002B11DC05F020FC41462075A560204658
:1018E000FFF76EFF07F07AF8A368227D2061C254EB
:1018F000A3680133A3601EE0A6689E421BDAD4F8F9
:10190000109005F009FC09F80600E36801369E42D4
:10191000A66010D163790BB927710CE021692046CC
:10192000FFF7A2FF20463146FFF78AFF657102E00C
:10193000012704F114082579002DC4D0BDE8F883EF
:1019400005F0EAFBFE2807D10123A371BDE8F88367
:10195000A379002BECD1F3E7BDE8F883C079704799
:10196000034B10B504460360FEF7FEFF204610BD92
:10197000701B010010B50446FFF7F2FF204607F088
:101980002FF8204610BDFFFF37B5069D0095044691
:10199000FEF7FCFF014B204623603EBD701B01009B
:1019A000084B10B504460360D0F8AC0008B107F04E
:1019B00017F80023C4F8AC30204600F029FB20467D
:1019C00010BD00BF981B010010B50446FFF7E8FFEB
:1019D000204607F005F8204610BD10B50368017ACF
:1019E0001C7843681A78437A1A40837A0C4203F0D1
:1019F000030318BF43F004030AB143F008039A102D
:101A0000013B82720D2B14D8DFE803F0070A0D0AA0
:101A10001310070710130A0D0A07C368013307E004
:101A2000C368013B04E0C368023301E0C368023BC2
:101A3000C36010BD70B5054600F00FFBD5F8AC4093
:101A40000646237C72B6012B02D82046FFF7C5FF5D
:101A500062B6E368D5F8A80058430AF07BF801465F
:101A6000304609F0C3FF4FF07C510AF0C7F870BD53
:101A700008B5034BD3F88400FFF7AFFF08BD00BFE4
:101A8000388EFF1F08B5034BD3F88000FFF7A5FF82
:101A900008BD00BF388EFF1F08B5024BD86FFFF797
:101AA0009CFF08BD388EFF1F08B5024B986FFFF7EB
:101AB00094FF08BD388EFF1F08B5024B586FFFF723
:101AC0008CFF08BD388EFF1F08B5024B186FFFF75B
:101AD00084FF08BD388EFF1F08B5024BD86EFFF794
:101AE0007CFF08BD388EFF1F08B5024B986EFFF7CC
:101AF00074FF08BD388EFF1F08B5024B586EFFF704
:101B00006CFF08BD388EFF1F08B5024B186EFFF73B
:101B100064FF08BD388EFF1F08B5024BD86DFFF774
:101B20005CFF08BD388EFF1F08B5024B986DFFF7AC
:101B300054FF08BD388EFF1F08B5024B586DFFF7E4
:101B40004CFF08BD388EFF1F08B5024B186DFFF71C
:101B500044FF08BD388EFF1F08B5024BD86CFFF755
:101B60003CFF08BD388EFF1F08B5024B986CFFF78D
:101B700034FF08BD388EFF1F08B5024B586CFFF7C5
:101B80002CFF08BD388EFF1F08B5024B186CFFF7FD
:101B900024FF08BD388EFF1F08B5024BD86BFFF736
:101BA0001CFF08BD388EFF1F08B5024B986BFFF76E
:101BB00014FF08BD388EFF1F08B5024B586BFFF7A6
:101BC0000CFF08BD388EFF1F08B5024B186BFFF7DE
:101BD00004FF08BD388EFF1F08B5024BD86AFFF717
:101BE000FCFE08BD388EFF1F08B5024B986AFFF750
:101BF000F4FE08BD388EFF1F08B5024B586AFFF788
:101C0000ECFE08BD388EFF1F08B5024B186AFFF7BF
:101C1000E4FE08BD388EFF1F08B5024BD869FFF7F8
:101C2000DCFE08BD388EFF1F08B5024B9869FFF730
:101C3000D4FE08BD388EFF1F08B5024B5869FFF768
:101C4000CCFE08BD388EFF1F08B5024B1869FFF7A0
:101C5000C4FE08BD388EFF1F08B5024BD868FFF7D9
:101C6000BCFE08BD388EFF1F08B5024B9868FFF711
:101C7000B4FE08BD388EFF1F08B5024B5868FFF749
:101C8000ACFE08BD388EFF1F08B5024B1868FFF781
:101C9000A4FE08BD388EFF1F08B5212800F2D580AC
:101CA000DFE810F0220027002C00310036003C0055
:101CB000410046004B00500055005A005F00640090
:101CC00069006E00730078007D00820087008C0040
:101CD000910096009B00A000A500AA00AF00B400F0
:101CE000B900BE00C300CD00594B0020196059490E
:101CF000A0E0574B0120596057499BE0544B02200C
:101D00009960564996E0524B0320D960544991E0BE
:101D10004F4B04201961024652498CE04C4B052080
:101D20005961514986E04A4B062099614F4981E04B
:101D3000474B0720D9614E497CE0454B082019628A
:101D40004C4977E0424B092059624B4972E0404BC5
:101D50000A20996249496DE03D4B0B20D962484900
:101D600068E03B4B0C201963464963E0384B0D207B
:101D7000596345495EE0364B0E209963434959E06B
:101D8000334B0F20D963424954E0314B1020196482
:101D900040494FE02E4B112059643F494AE02C4BFB
:101DA000122099643D4945E0294B1320D9643C49F0
:101DB00040E0274B142019653A493BE0244B15209D
:101DC0005965394936E0224B16209965374931E08B
:101DD0001F4B1720D96536492CE01D4B182019667A
:101DE000344927E01A4B19205966334922E0184B31
:101DF0001A20996631491DE0154B1B20D9663049E0
:101E000018E0134B1C2019672E4913E0104B1D20BE
:101E100059672D490EE00E4B1E2099672B4909E0AA
:101E20000B4B1F20D9672A4904E0094BC3F88010E7
:101E300028492020042204F03DFF012008BD044B66
:101E40002120C3F884102449F4E7002008BD00BF16
:101E5000388EFF1F891C0000791C0000691C0000DF
:101E6000591C0000491C0000391C0000291C0000FE
:101E7000191C0000091C0000F91B0000E91B0000F0
:101E8000D91B0000C91B0000B91B0000A91B0000E2
:101E9000991B0000891B0000791B0000691B0000D2
:101EA000591B0000491B0000391B0000291B0000C2
:101EB000191B0000091B0000F91A0000E91A0000B4
:101EC000D91A0000C91A0000B91A0000A91A0000A6
:101ED000991A0000851A0000711A0000F0B599B037
:101EE000DDE91E45CDE90045DDE92045CDE90245A6
:101EF000229C0494239C0594249C0694259C07947E
:101F0000DDE92645CDE90845DDE92845CDE90A4565
:101F1000DDE92A45CDE90C45DDE92C45CDE90E4545
:101F20002E9C10942F9C1194309C1294319C1394ED
:101F3000329C1494339C1594349C0646169400F0FD
:101F40006BFA214B1420336006F046FD9DF8D470E7
:101F50009DF8D85004460221384605F04DF8284631
:101F6000022105F049F8194A52F8373003F500719B
:101F700021600121217252F83520617202F5007052
:101F80000021E16060604FF4FA410139FDD193F81E
:101F9000003292F8002203F00103D20744BF43F05D
:101FA0000203DBB2A37221463846FFF775FE2146D5
:101FB00020742846FFF770FE237C18182074C6F89A
:101FC000AC40304619B0F0BD981B0100F81E01006E
:101FD000022938B50446104609D003290DD001293D
:101FE00010D109F097F9A56AC5E90A010AE009F0DC
:101FF00091F9A56AC5E90C0104E009F08BF9A56A1D
:10200000C5E90E01A06ABDE8384000F055BBFFFFEE
:102010000C4B10B504460360806A08B106F0E0FC82
:10202000206A10B103689B689847606A08B106F09F
:10203000D7FC002363622362A3622046FFF790FC73
:10204000204610BDC01B010010B50446FFF7E0FF9D
:10205000204606F0C5FC204610BD38B5446A05464A
:10206000237C72B6012B02D82046FFF7B6FC62B67D
:10207000E368D5F8A800584309F06CFD38BDFFFFB0
:102080002DE9F047444B86B01B68059382460598BE
:1020900009F01EF9DAE91423CDE9000108F0DAFFAE
:1020A000DAE9242306460F4600203C4909F0B0FA3D
:1020B00000223B4B09F082F902460B463046394676
:1020C00009F002FC00285DD0DAF800305046DB69E8
:1020D000984709F01FF9DAE91E23CDE9020108F05B
:1020E000B9FF02460B4608F0B7FF29A3D3E9002346
:1020F00009F064F98046DAF89800894609F0F8F8A2
:1021000002460B464046494609F082FA00228046C4
:10211000894630463946224B09F07AFA02460B4688
:102120004046494609F074FADAE9224502460B4670
:102130002046294609F042F922462B4606460F461C
:102140000020164908F086FF0446DAF848000D46DC
:1021500009F0E0F802460B462046294609F02EF920
:1021600002460B463046394608F076FF09F0E8FB98
:10217000DDE90223CAE91E23DDE90023CAE91423AD
:10218000CAF8480006B0BDE8F08700BFAFF3008092
:10219000182D4454FB2109400090FF1F0000F03F20
:1021A00000408F40AFF30080006A08B503681B68E9
:1021B000984708BD2DE9F7431F4690F83030804618
:1021C000164663B9194B846A1B680193019809F09C
:1021D0007FF80022164B09F01BFAC4E90401D8F875
:1021E0006090012388F83030484609F093F8324671
:1021F0003B4604460D4609F053FB60B909F1004027
:1022000009F088F832463B4604460D4609F066FB65
:1022100008B934463D46054B1B680093009BC8E94E
:102220002045C8F83430BDE8FE8300BF0090FF1F92
:1022300000408F4010B50446D1F8070009F06AF855
:1022400002460B462046BDE81040FFF7B3BFFFFF34
:1022500013B5114B1B68019390F83030019A044676
:10226000C3B1436BD21A836B9A4213D90022002365
:102270000021C0E91A2380F830100020A064206AF1
:10228000C4E91C23C4E9202303681B689847A06A9B
:1022900000F012FA1CBD00BF0090FF1FFFFFFFFF00
:1022A000036870B5DB6906469847014609F09EFB56
:1022B00009F030F80AA3D3E9002309F07FF80446B7
:1022C000D6F898000D4609F013F802460B46204652
:1022D000294609F09DF909F033FB306470BD00BF59
:1022E000182D4454FB2109402DE9D343214B1B6891
:1022F00001930446019808F0EBFFD4E916238046C9
:10230000894608F0A7FED4E9282306460F46002098
:10231000194909F07DF90022184B09F04FF80246DF
:102320000B463046394609F0D9FA08B3E36B012B66
:1023300002D1A06C606403E02046FFF7B1FF206C7F
:1023400008F0E8FFC4E91A01A06A00F0BBF9E06AEE
:1023500008F0CEFFD4E91C2309F030F8C4E916894F
:10236000C4E91C0109F0C4FA01462046FFF71CFF2E
:10237000BDE8DC830090FF1F0000F03F00408F406D
:1023800010B50446FFF77CFE94F8303023B12046A8
:10239000BDE81040FFF7A8BF10BD10B50446FFF719
:1023A00057FF2046BDE81040FFF7EABF1FB50446BF
:1023B000FEF708FB68B3A36C63646A238DF80030F2
:1023C0000F238DF80130204641F20103ADF80230B1
:1023D000FEF7F6FA8DF806002046FFF761FF636C02
:1023E000CDF80700CDF80B300023ADF804309DF890
:1023F00001101A4604E01DF80300121892B20133CE
:102400008B42F8DBE069ADF80420036869461B697C
:1024100098471FBDFFFFFFFF2DE9F0438DB0074632
:1024200000930623DDF86090199EFFF7ADFA624B2A
:102430003B60279BFB63002387F83030269BBB6300
:10244000DDE91C23C7E92823DDE91423C7E922239A
:10245000DDE91623C7E92423259AC7F89820289A8E
:10246000FA6240F2E7320024002500230C20914557
:10247000C7E91A457B643B64C7E91C45C7E91E45AB
:10248000C7E92045984609D106F0A6FA3146044628
:102490004A4D04F05BF93C6200240AE006F09CFA25
:1024A00049460446324604F09DF93C6240A5D5E910
:1024B0000045434E33680993099B7B6333680A9355
:1024C0000A9808F005FF33680B93C7E914010B98CD
:1024D00008F0FEFEC7F84880C7E91601582006F04C
:1024E0007BFADDE91E23CDE90023DDE92023CDE9D8
:1024F0000223DDE92223CDE904232A9B07F16802A8
:10250000064607F17001069307F1800300F09CF87E
:10251000BE621420C6E9064506F05EFA9DF86860C2
:102520009DF86C5004460221304604F065FD2846B3
:10253000022104F061FD234A52F8363003F50071A0
:1025400021600121217252F83520617202F500707C
:102550000021E16060604FF4FA410139FDD193F848
:10256000003292F8002203F00103D20744BF43F087
:102570000203DBB2A37221463046FFF78DFB2146F2
:1025800020742846FFF788FB237C1818249B2074AE
:102590003B66299B7C623846C7F8A8300A21FEF7C3
:1025A0000DFA38460DB0BDE8F08300BFAFF30080F0
:1025B0000000000000C05F40C01B010000407F40E1
:1025C0000090FF1FF81E0100014A01704260704731
:1025D0007092FF1F70B50446406803680E461B6882
:1025E0002178154698476068036831461B6898470C
:1025F0006068036829461B6898476068227803680A
:10260000B618A9191B6801F07F01984770BD7E2A92
:10261000A8BF7E226FF07D039A42B8BF1A46002AF7
:10262000B8BF5242D2B2FFF7D5BF10B54C1E012C35
:1026300009D802290CBF0421002101EBD271BDE8A9
:102640001040FFF7E4BF10BD13B580E80E00DDE9D0
:102650000423C0E90A23DDE90623C0E90C23DDE9F0
:102660000823C0E90E23124B1B680193044601980E
:1026700008F02EFE00220F4B08F0CAFF00220023B4
:10268000C4E91223C4E9102307A3D3E90023C4E952
:102690000401C4E906230A9808F03CFEC4E91401C9
:1026A00020461CBDAFF300800000000000C05F406A
:1026B0000090FF1F00408F4000220023C0E910233C
:1026C0007047FFFF2DE9F04F584B89B01B68079307
:1026D0008046079808F0FCFD0022554B08F098FF53
:1026E000D8E90423CDE9040108F0B4FCD8F80820A7
:1026F000D8F8043082468B46D2E90001D3E90023A2
:1027000008F0A8FCD8E9062304460D46D8E91401D0
:1027100008F054FE524681460E465B462046294646
:1027200008F04CFED8E9102308F096FC4A463346E0
:10273000CDE9020109F0D2F810B14A46334611E062
:1027400006F1004C6346DDE902014A46CDF804C0BB
:1027500009F0A6F8DDF804C010B9DDE9022301E0B4
:102760004A466346C8E910232046D8E90A23294689
:1027700008F024FED8E9102306460F46D8E90C01DC
:1027800008F01CFE02460B463046394608F064FC51
:10279000D8E9122306460F462046294608F05AFC7F
:1027A00052465B4608F034FFD8E90E2308F006FED7
:1027B00002460B463046394608F04EFCD8F80090E9
:1027C0000B460246C9E90023D8F818B0D8F81CA077
:1027D0005A4653460E46074609F080F8002818BFAF
:1027E0005F4618BF56463A463346C9E90023D8F833
:1027F0001C30D8F818B003F1004A5A465346384600
:10280000314609F04DF800280CBF3A465A460CBF35
:1028100033465346C9E90023DDE90423C8E91245DC
:10282000C8E9042309B0BDE8F08F00BF0090FF1F86
:1028300000408F40034B10B504460360FEF794F848
:10284000204610BDE81B010010B50446FFF7F2FF5B
:10285000204606F0C5F8204610BDFFFF37B5069D9F
:102860001B7800950446FEF791F8064B2360079B02
:1028700063639DF8243084F82030089B204623634E
:102880003EBD00BFE81B010090F8203043B1D1F8F5
:1028900006308362D1F80A30C362D1F80E30436249
:1028A000704713B5D1F806300193D1F80A2002AB76
:1028B00043F8082D0268D46993E80600A0471CBDC0
:1028C00010B50446C06BFFF7C3FCE06BFFF758FD83
:1028D000A06BFFF7BDFCA06BBDE81040FFF750BD3B
:1028E0002DE9F74302AB03E90600476B009E019D0B
:1028F00004463946304609F035FA216B80462846B1
:1029000009F07CF939468146384609F06FF80146EE
:10291000484609F027FA0146404609F067F808F0F2
:10292000F9FC02460B46E06BFFF744FC676B304650
:10293000394609F017FA216B0646284609F05EF978
:1029400039460546384609F051F80146284609F04F
:1029500009FA0146304609F047F808F0DBFC024668
:10296000A06B0B4603B0BDE8F043FFF723BCFFFFAD
:10297000034B10B504460360FFF75CFF204610BD13
:10298000101C010010B50446FFF7F2FF204606F0C8
:1029900027F8204610BDFFFFF8B51046194614A3CE
:1029A000D3E9002308F058FB13A3D3E9002306461C
:1029B0000F4606F071FA002204460D4630463946AD
:1029C000002308F06DFF40B1204629460AA3D3E951
:1029D000002308F041FB04460D462046294604A387
:1029E000D3E9002308F036FBF8BD00BFAFF3008049
:1029F000182D4454FB210940182D4454FB21194043
:102A000038B50446C06BFFF74BFC616C054608F017
:102A1000EBFF616B09F0F2F8656438BD38B5044628
:102A2000806BFFF73DFC216C054608F0DDFF616B14
:102A300009F0E4F8256438BD002170B50646016050
:102A40004160104619460022094B08F0B7FC0446C5
:102A50000D4606F07FF908F073FF2946B060204666
:102A600006F02EF908F06CFFF060304670BD00BF34
:102A70000000E03F2DE9F04F95B08046FDF7A2FF42
:102A8000002800F0C4804046FFF7BAFF04464046E5
:102A9000FFF7C4FF05462946204608F0A7FF4FF080
:102AA0007C5109F0ABF85B4B1B6807938146079894
:102AB00009F04CF8584909F055F929468346204653
:102AC00008F092FFD8F8301009F04CF9D8F8481007
:102AD00009F094F8D8F8241008F088FFC8F824000A
:102AE00008F018FC02460B464046FFF755FF08F079
:102AF00027FF8246C8F82400484608F00BFCCDE9C1
:102B00000201504608F006FCCDE9040106F0D8F8B1
:102B10000446D8F828000D4608F0FCFB224606467D
:102B20000F462B46DDE9020108F048FC02460B4641
:102B30003046394608F090FA08F002FF8446C8F89B
:102B40002800DDE90401CDF804C006F003F90646CB
:102B5000D8F82C000F4608F0DDFB324604460D463F
:102B60003B46DDE9020108F029FC02460B462046FF
:102B7000294608F071FA08F0E3FED8F85010C8F8BA
:102B80002C000446584608F02FFFD8F84C10054694
:102B9000484608F029FFDDE904230646414608A817
:102BA000C8F850B0C8F84C90FFF746FF6C238DF87A
:102BB0003030DDF804C0CDF83A401E2300278DF8F0
:102BC0003130304641F201032946ADF83230ADF8DC
:102BD0003470CDF836C0CDF83EA009F0C3F80A9B9A
:102BE000CDF84A00CDF842300B9B3A46CDF846303E
:102BF0003B460CA9505C01321B181E2A9BB2F8D12F
:102C0000D8F81C00ADF8343003681B69984715B03C
:102C1000BDE8F08F0090FF1F00007A4470B586B0C9
:102C200006AD002605F8056D00930A9B01930B9BEA
:102C30000293012303932B460446FFF70FFE0E4B2E
:102C400023600C9BA3630D9BE3630E9BA3640B4B60
:102C50001B6800250593256465646562A562E562CD
:102C6000059808F073FF064909F07CF8E5642065D3
:102C7000204606B070BD00BF101C01000090FF1F71
:102C800000007A447047FFFF034B10B50446036011
:102C9000FDF76AFE204610BD381C010010B5044641
:102CA000FFF7F2FF204605F09BFE204610BDFFFF18
:102CB00038B5054690F8200003F0FEFE044628468D
:102CC000FDF77AFE0A28204606D108F043FF08F0F7
:102CD00021FB0022104B06E008F03CFF08F01AFB35
:102CE00009A3D3E9002308F069FB09A3D3E9002372
:102CF00008F08EFC0022094B08F08AFC08F020FE48
:102D000038BD00BFAFF30080666666666666C94080
:102D100000000000E0FFEF400000B44000408F40A2
:102D200030B585B00446FDF74DFE40B36D238DF8F8
:102D300004300B2300258DF80530204641F20103B5
:102D4000ADF80630ADF80850FDF73AFE8DF80A00F0
:102D50002046FFF7ADFF2B46CDF80B002A469DF825
:102D6000050003E0C95C521892B20133834201A905
:102D7000F8DBE069ADF8082003681B69984705B0E7
:102D800030BDFFFF73B5069E1B78079D0096044675
:102D9000FDF7FCFD0A4B012D236001D10E2304E059
:102DA000022D01D10F2300E01023236294F82000AC
:102DB000002104F021F9102003F054FE20467CBDD0
:102DC000381C0100704737B50446FDF7FBFD68B3BA
:102DD0006E238DF80030082300258DF80130204641
:102DE00041F20103ADF80230ADF80450FDF7E8FD03
:102DF0008DF8060094F8200004F0F2F8431B5842C6
:102E000058418DF807009DF801102B462A4604E032
:102E10001DF80300121892B201338B42F8DBE0690F
:102E2000ADF80420036869461B6998473EBDFFFF63
:102E3000034B10B504460360FDF796FD204610BD18
:102E4000581C010010B50446FFF7F2FF204605F0BC
:102E5000C7FD204610BDFFFF13B5009301230446B4
:102E6000FDF794FD094B2360049B012B01D10B233B
:102E700000E00C23236294F82000022104F0BCF847
:102E8000102003F0EFFD20461CBD00BF581C0100C0
:102E9000094B10B504460360006F10B103685B680E
:102EA00098470023236704F1740001F011FF2046C6
:102EB000FDF75AFD204610BD781C010010B50446F0
:102EC000FFF7E6FF204605F08BFD204610BDFFFF13
:102ED00010B50446D03001F03DFD036820671B6942
:102EE0009847002812DD236FE0691A79E2B95B790F
:102EF000D3B115E00121002384F8C83084F8C9104B
:102F000084F8CA1084F81411204605E0002384F8E0
:102F1000143120466FF00101BDE81040FDF74EBDB1
:102F2000036804495B6903E0036803495B690022A5
:102F30009847DFE7901C0100AA1C0100F8B5114872
:102F4000069D16461F460C4600F0B2FB31460D4862
:102F500000F054FA00210B4800F0BAFB2146094862
:102F60003A4600F083FC002405E0064800F06EFAC3
:102F700028550134E4B2034800F05EFA0028F4D189
:102F8000F8BD00BF148FFF1F1FB503AB009368216E
:102F900002234122FFF7D2FF9DF80C009DF80D306F
:102FA00043EA002000B205B000BDFFFFFFFFFFFFB6
:102FB0002DE9F043964BB9B01B680B930B9FC36E82
:102FC0000646B0F82001FC1A08F0C0FD08F0A2F98E
:102FD00002460B4600208F4908F01AFB00228E4B58
:102FE00008F0ECF908F084FC844240F20381306F71
:102FF00003689B699847002800F0FB8096F815311C
:10300000002B40F08A800CA800F06CFD0FA800F0A7
:1030100069FD12A800F066FD316F0CA8143100F0B4
:103020003FFD316F0FA8083100F03AFD316F12A853
:10303000203100F035FD336FDB6A0CAA0FA9009335
:1030400006F1740012AB01F073FF306F03681B6A66
:10305000984718A800F002FF15A800F043FD06F1FC
:10306000BC0115A800F01CFD06F1AC0118A800F089
:1030700029FE0C9B33620D9B73620E9BB3620F9B08
:10308000F362109B3363119B7363129BB363139BB7
:10309000F363149B3364189B7364199BB3641A9B8A
:1030A000F3641B9B30463365FFF76EFF08F052FD5B
:1030B00008F030F952A3D3E9002308F0A9FA00225E
:1030C000564B07F0C9FF08F03BFC70651698179D3A
:1030D000159C08F01FF94CA3D3E9002308F06EF902
:1030E00008F02EFCB065284608F014F946A3D3E991
:1030F000002308F063F908F023FC716E08F074FCFB
:10310000F065204608F006F93FA3D3E9002308F054
:1031100055F908F015FC30666BE096F81651002D55
:1031200058D115A800F0DEFC316F15A8203100F051
:10313000B7FC3446A94615ABD4F8FC1055F803800B
:10314000404608F0F9FE18B1C4F8FC804FF00109C0
:103150004046D4F8081108F00DFF18B1C4F80881F2
:103160004FF00109043504340C2DE4D1B9F1000FFE
:103170003FD0D6F8FC0008F0CDF80446D6F8080198
:103180000D4608F0C7F8CDE90001D6F8000108F0B7
:10319000C1F8CDE90201D6F80C0108F0BBF8CDE981
:1031A0000401D6F8040108F0B5F8CDE90601D6F817
:1031B000100108F0AFF82246CDE908012B4618A807
:1031C000174909F0D3FDF069036818A95B6900226B
:1031D00098470EE00024012386F8FA3086F815415E
:1031E00086F81641204606F1F80101F0C9FF336F59
:1031F0001C71F76639B0BDE8F08300BFAFF3008003
:1032000052B81E85EBDD7440F8C1631ADCA54C4052
:103210000090FF1F0000F03F00408F40000035404D
:10322000CC1C0100AFF3008010B5044690B0FFF74E
:10323000BFFE2046FDF7C6FB002847D094F81521B5
:10324000002A43D10DE001A9585C013312183A2B32
:1032500092B2F8D1E069ADF8082003681B6998477D
:1032600034E06F238DF804303A238DF8053041F2B5
:103270000103ADF80630E36AADF80820CDF80A3056
:10328000236BCDF80E30636BCDF81230236ACDF886
:103290001630636ACDF81A30A36ACDF81E30A36BDE
:1032A000CDF82230E36BCDF82630236CCDF82A30F0
:1032B000636CCDF82E30A36CCDF83230E36CCDF8D2
:1032C0003630236DCDF83A301346BCE710B010BD50
:1032D00000230362C3628363836443620363C36343
:1032E000C36483624363036403654FF07E534364A6
:1032F0007047FFFF37B504461D46009203230022A6
:10330000FDF744FB194B204640F8743B01F006FDE5
:1033100004F1D00000F05BFB154800F01DF92046D9
:10332000FFF7D6FF20460021FDF748FB0023A366E8
:103330002366A365E3656365BDF8183065660025FF
:10334000A4F82031C4F81C51C4F8185184F8145161
:1033500084F81551E5662046FFF7BAFD94F814315C
:103360000BB184F8165120463EBD00BF781C010009
:10337000148FFF1F10B5044604F1F801002001F07E
:1033800015FF002384F8FA30084B094AC4F80831C5
:10339000C4F80C31C4F81031236FC4F8FC20C4F811
:1033A0000021C4F8042101221A7110BD809618CBA7
:1033B0008096184B10B590F815318A7904460BB1F8
:1033C00012B110BD22B910BD012380F8163110BD15
:1033D00080F81631FFF7CEFF012384F8153110BDB8
:1033E000054A137803F00203DBB2002BF9D0024B3D
:1033F00002221A70704700BF03600640094B1B7819
:1034000013B9094B1B782BB1084A1378202B03D929
:1034100001230371002070470548C1540133137024
:1034200001207047268FFF1FE98EFF1F278FFF1F88
:10343000C88EFF1F7047FFFF024B1878024B1B78A6
:10344000C01A7047258FFF1F248FFF1F064A0749A8
:1034500013780978994204D90549C85C013313707F
:1034600070474FF0FF307047248FFF1F258FFF1FDD
:10347000EA8EFF1F054B064A1B7812789A4202D942
:10348000044AD05C70474FF0FF307047248FFF1F15
:10349000258FFF1FEA8EFF1F38B50E4B1B78144691
:1034A00013B90D4B1B788BB10C4B1D78C5F1210363
:1034B0009C4202D9012202711C4609482246401949
:1034C00009F0AEF8054B2D191D7000E01C46204692
:1034D00038BD00BF268FFF1FE98EFF1F278FFF1FFC
:1034E000C88EFF1F10B5104B1B7813F020040BD1B2
:1034F000122003F009FC0D4B1B68A3B10C4A147099
:103500000C4A1078984710BD0B4A13780133DBB290
:10351000012B137002D8094B1B7823B91220BDE888
:10352000104003F0F1BB10BD03600640C48EFF1FC6
:10353000248FFF1F258FFF1F108FFF1FE98EFF1F96
:10354000002202710273034A4FF47A7181600260B3
:10355000704700BF001D01000C4B00221A700C4B7D
:10356000196841F0400119600A4B0B491A704FF479
:1035700019720A6041F8042C084A272111700421AD
:1035800051712021117180221A707047E98EFF1F3E
:1035900034800440026006400CA0044001600640F4
:1035A00010B5374A137803F01001C9B221B903F0FE
:1035B0004002D2B242B92EE01021117003F0400255
:1035C000D2B2002AF3D110BD13F004032D4A18D053
:1035D000002313702C4A13702C4B1B68144603B144
:1035E000984722782A4B1AB927491A700120087087
:1035F000284AD02111701A78274B1A700122274BC4
:1036000021E001211170264A1370224BC0221A704A
:1036100002331B7830E01F4A1F4C117811F0100163
:1036200017D013F0010310D11C4917480A7800780D
:10363000904205D9164B9B5C013223700A7000E062
:103640002370144BD0221A7016E0C0231370237815
:1036500012E0144B122019700322134903F02AFBC5
:103660000F4A207813781F2B06D80649097819B11C
:103670000E49C85401331370014B02221A7010BD59
:1036800003600640C08EFF1F278FFF1F0C8FFF1F98
:10369000C88EFF1F0260064004600640288FFF1F8F
:1036A000258FFF1F108FFF1FE5340000EA8EFF1FDC
:1036B000044B054A4900197001231370034A137023
:1036C000704700BFC88EFF1F268FFF1F278FFF1F69
:1036D0002DE9F041204B12221A70204A0D46117834
:1036E00001F02001C9B211B1B42313700BE01946E7
:1036F0000A7802F02002D3B2002BF9D1184A1370D5
:10370000164BB0221A700024164E174FDFF8608057
:1037100013E03B5D88F80030FFF762FE0E4B1B782C
:10372000DA0704D5002C14BF032002200BE003F0BD
:103730001003DBB233B90134E4B23378A342E8D8E2
:10374000002000E0042015B1044B80221A70074BC2
:1037500000221A70BDE8F081036006400260064056
:10376000E98EFF1F278FFF1FC88EFF1F268FFF1FA9
:10377000046006402DE9F0471446344A1E460023F3
:103780001370334A1370334B12221A70324A107876
:1037900000F02000C0B210B1B42313700BE0184643
:1037A000027802F02002D3B2002BF9D12B4A137019
:1037B000294BB0221A704900294D41F001012970AE
:1037C000FFF70EFE234B244A1B7813F0110F04D091
:1037D000802313700020BDE8F0872CB9002E0CBFA9
:1037E000A02680261670F5E7012C01D1A82300E061
:1037F000A02313702B781B4FDFF86480DFF85890FC
:1038000025464FF0A80A0BE0013DEDB2FFF7E8FDB9
:10381000012D08BF89F800A098F8003007F8013F93
:10382000012DF1D1FFF7DCFD0B4B0F49B0221A70CF
:103830000B4A1078621ED2B2885420460EB1802204
:103840001A70034B1C70BDE8F08700BF248FFF1F68
:10385000258FFF1F0360064002600640E98EFF1FB0
:1038600004600640E98EFF1FEA8EFF1F0123FFF769
:1038700081BF0121FFF72CBF0148FFF761BE00BFE8
:10388000148FFF1F2DE9F04F1546324A89B09A4632
:1038900013680291059300240746BDF84860DDF8DF
:1038A0001480A1462FE02C483946FFF701FF02990A
:1038B0002948FFF7A3FD2848FFF7DBFF26483946D4
:1038C000FFF7F6FE2A1B202AA8BF202222483946ED
:1038D000D2B2FFF7CBFF4AFA89F34FF0000B039304
:1038E0000BEB0901C9B21C480191FFF7A5FD019935
:1038F000E8B11EB3174B186806900698C8EB000095
:10390000B0421BD313E0AC42CDD36EB1114A126862
:103910000792079AC8EB0208B04505D34FFA89F21F
:10392000AA42B8BF4FF0FF094FFA89F00FE0202DEF
:1039300094BF64192034E4B28946E4E70648FFF7EF
:1039400085FD039B03F80B000BF1010BC8E709B0E1
:10395000BDE8F08F0090FF1F148FFF1F13B51446B2
:10396000009301222346FFF78DFF1CBDF8B50746E3
:103970000C460D48394615461E46FFF799FE21466E
:103980000948FFF73BFD002403E0315DFFF736FDFA
:103990000134E3B2AB420448F7D3FFF76AFFD0F13A
:1039A000010038BF0020F8BD148FFF1F07B502AB20
:1039B00003F8012D0122FFF7D9FF0EBD084603F0E1
:1039C00037B90846114603F047B903F0F5B84FF090
:1039D000FF3202605022026128224261032282618A
:1039E000C261102202624262682202717047FFFFC8
:1039F00010B50B4C4FF07C51A4EB600408F0FEF8BE
:103A0000214608F0FBF8214608F0F8F801464FF08F
:103A10007F5007F0E9FF0146204608F0EFF810BD9F
:103A2000DF59375F70B5044616460D460278407878
:103A3000B3B140EA022000B208F08CF8314608F039
:103A4000DDF82860E378A07843EA002000B208F0AF
:103A500081F8314608F0D2F868602079637915E082
:103A600042EA002000B208F075F8314608F0C6F8C6
:103A70002860A378E07843EA002000B208F06AF8F2
:103A8000314608F0BBF868606079237943EA00208A
:103A900000B208F05FF8314608F0B0F8A86070BDD9
:103AA000884205D00B6803604B6843608B68836075
:103AB000704738B504460D460068096807F094FF62
:103AC00020606968606807F08FFF6060A968A0687F
:103AD00007F08AFFA060204638BD002303604360E2
:103AE0008360704710B50446FFF7F7FF204610BD0E
:103AF00070B505460C460068096808F07FF86168F3
:103B00000646686808F07AF80146304607F06EFF0E
:103B1000A1680646A86808F071F80146304607F02B
:103B200065FF70BD2DE9F047D1F808A0D0F80880F6
:103B300005460C4650466968164608F05FF861680D
:103B40000746404608F05AF80146384607F04CFF51
:103B50003060D4F800902F684046494608F04EF88F
:103B600051468046384608F049F80146404607F07D
:103B70003BFF70606168384608F040F869680446A9
:103B8000484608F03BF80146204607F02DFFB0609C
:103B9000BDE8F0872DE9F041D0F8008047688668DD
:103BA00041460446404608F029F83946054638465D
:103BB00008F024F80146284607F018FF314605466C
:103BC000304608F01BF80146284607F00FFFFFF7C4
:103BD0000FFF0021054608F0A5F9A0B928464FF0CF
:103BE0007E5108F09FF970B92946404608F006F862
:103BF00029462060384608F001F8294660603046C2
:103C000007F0FCFFA060BDE8F0812DE9FF410E4602
:103C100007C801AB83E807001846FFF7BBFF02980F
:103C200007F078FB044603980D4607F073FB024645
:103C30000B462046294605F02DF907F081FE30603D
:103C4000019807F067FB04460298DDF80C800D46EA
:103C5000014607F0D3FF41460746404607F0CEFF36
:103C60000146384607F0C2FE07F054FB05F070F934
:103C70000B4602462946204605F00CF907F060FE87
:103C8000002300F100407060B360BDE8FF8103468F
:103C9000006870B501465E689D6807F0AFFF314669
:103CA0000446304607F0AAFF0146204607F09EFE74
:103CB00029460446284607F0A1FF0146204607F0A2
:103CC00095FE70BD884207D00B6803604B68436067
:103CD0008B688360CB68C360704770B505460E463D
:103CE00000242859315907F081FE28510434102C42
:103CF000F7D1284670BD70B505460E4600242859F8
:103D0000315907F071FE28510434102CF7D12846A0
:103D100070BDF0B58BB0044601A80D46FFF7DDFE7F
:103D200004A8FFF7DAFE07A8FFF7D7FE6368019340
:103D3000A3680293E36803936B680493AB680593ED
:103D4000EB6804A901A80693FFF7D2FE07AA07466D
:103D500004A901A8FFF7E6FE26682968304607F0A7
:103D60004DFF394607F040FE04992060304607F0C9
:103D700045FF2D6801990746284607F03FFF014699
:103D8000384607F033FE079907F030FE059960606A
:103D9000304607F033FF02990746284607F02EFF0A
:103DA0000146384607F022FE089907F01FFE0699E3
:103DB000A060304607F022FF03990646284607F028
:103DC0001DFF0146304607F011FE099907F00EFE6F
:103DD000E06020460BB0F0BD38B5044600680D46E3
:103DE00007F00CFF29462060606807F007FF2946AE
:103DF0006060A06807F002FF2946A060E06807F055
:103E0000FDFEE060204638BD38B5044615460FC9B2
:103E100084E80F0020462946FFF77BFF204638BD87
:103E200038B5044615460FC984E80F0020462946D8
:103E3000FFF7D2FF204638BD38B5044615460FC9F6
:103E400084E80F0020462946FFF755FF204638BD7D
:103E50000023036043608360C360704710B504466D
:103E6000FFF7F6FF204610BD2DE9F843D0F800908B
:103E7000D0F804808768C66849460446484607F07B
:103E8000BDFE41460546404607F0B8FE01462846BD
:103E900007F0ACFD39460546384607F0AFFE01464F
:103EA000284607F0A3FD31460546304607F0A6FE3A
:103EB0000146284607F09AFDFFF79AFD00210546C6
:103EC00008F030F8C8B928464FF07E5108F02AF8BB
:103ED00098B92946484607F091FE29462060404699
:103EE00007F08CFE29466060384607F087FE2946B9
:103EF000A060304607F082FEE060BDE8F883FFFF77
:103F00002DE9F8430746D0F80890D0F804800E4613
:103F10004846F96807F072FE39680446404607F0E3
:103F20006DFE0146204607F061FD07F0F3F90246F9
:103F30000B4607F091F804460D464046414607F00F
:103F40005DFE49468046484607F058FE0146404619
:103F500007F04CFD07F0DEF902460B4607F07CF84F
:103F600002460B460020304907F074F802460B4623
:103F70002046294604F08EFF07F0E2FCB968306065
:103F8000386807F03BFEF9680446786807F036FEAB
:103F90000146204607F028FD07F0BCF902460B4613
:103FA00007F05AF804F022FF07F0CAFCD7F808908F
:103FB00079687060484607F021FED7F80C803968B0
:103FC0000446404607F01AFE0146204607F00EFD63
:103FD00007F0A0F902460B4607F03EF804460D46EE
:103FE0004846494607F00AFE41460746404607F064
:103FF00005FE0146384607F0F9FC07F08BF902464A
:104000000B4607F029F802460B460020064907F048
:1040100021F802460B462046294604F03BFF07F0F4
:104020008FFCB060BDE8F8830000F03F2DE9F74F4A
:1040300004460D4608684FF07C5107F0DFFD07F09D
:1040400069F906460F4604F03BFE07F079FC394655
:104050008146304604F07EFE07F072FC4FF07C5142
:104060008346686807F0CAFD07F054F906460F4614
:1040700004F026FE07F064FC39468246304604F020
:1040800069FE07F05DFC4FF07C510190A86807F0D5
:10409000B5FD07F03FF906460F4604F011FE07F0A4
:1040A0004FFC39460546304604F054FE07F048FC04
:1040B00051460646484607F0A1FD019980465846FC
:1040C00007F09CFD29460746404607F097FD31461C
:1040D00003463846009307F091FD009B01461846C1
:1040E00007F084FC51462060584607F087FD01998F
:1040F0008246484607F082FD29468146504607F031
:104100007DFD31468346484607F078FD0146584616
:1041100007F06AFC29466060484607F06FFD3146AB
:104120008146504607F06AFD0146484607F05EFCAE
:104130003146A060404607F061FD294606463846F4
:1041400007F05CFD0146304607F04EFCE06020467B
:1041500003B0BDE8F04FFFF787BE38B50D46044603
:10416000FFF776FE2B6823606B6803F10043636002
:10417000AB6803F10043A360EB6803F10043E36025
:10418000204638BD4079704700487047181D01002F
:1041900005207047436B4FF4C87090FBF3F07047F5
:1041A000034B10B50446036000F0C0FB204610BD71
:1041B000301D010010B50446FFF7F2FF204604F061
:1041C0000FFC204610BDFFFF10B5044600F0CEFBEB
:1041D000014B2046236010BD301D01004B1FB3F57D
:1041E000797F4FF0000308D24FF47A724163B2FB3B
:1041F000F1F18163C3630120704718467047FFFFE8
:10420000112907D8044A4BB29A4003D580F88B1085
:10421000012070470020704700C000FE082907D821
:10422000044A4BB29A4003D580F88C1001207047A5
:1042300000207047000080FE4B1E632B03D8C0F89F
:1042400090100120704700207047FFFF08290BD015
:1042500001D829B117E010290AD0182913D10BE091
:1042600080F89410094B0AE080F89410084B06E09F
:1042700080F89410074B02E0074B80F89410C0F8C8
:104280009830012070470020704700BFFDB30B3904
:10429000A9689239787D0B3A787D8B3A08290CD041
:1042A00001D829B11BE010290CD0182917D10EE034
:1042B00080F895104FF062530DE080F895104FF0A4
:1042C000645308E080F895104FF0665303E080F8DF
:1042D00095104FF06853C0F89C30012070470020C3
:1042E000704710B538210446002290F88900FFF786
:1042F0005DFB00282DD094F8890023210022FFF7D0
:1043000055FB30B394F889006A210022FFF74EFB79
:10431000F8B194F889006A210422FFF747FBC0B185
:1043200094F889006A216022FFF740FB88B13220AF
:1043300002F09CFE94F8890038210122FFF736FB39
:1043400038B194F8890023217822BDE81040FFF7A6
:104350002DBB002010BDFFFF70B5514E8AB03388D1
:104360000446722190F889000093022203ABFFF704
:1043700089FA00B911E09DF80C509DF80D3003EB5F
:104380000525B5F5806F0AD12046FFF7AAFFE36A3D
:10439000A26B562101FB0233E36200207EE0B5F5FB
:1043A000F07F11D9338894F88900009374210C228E
:1043B00007ABFFF767FA0028EFD0E26AA36B0C3D6A
:1043C000D318E362772DECE70B2DE6D9344D94F842
:1043D00089002B88742100930C2207ABFFF752FA57
:1043E0000028DAD02B8894F889000093492108220C
:1043F00005ABFFF747FA0028CFD007A804F1140156
:10440000D4F89C200123FFF70DFB0DF1220004F1ED
:104410000801D4F898200123FFF704FB214A0DF18D
:10442000150004F120010023FFF7FCFAE368206A7D
:10443000D4F8A01003F10043E360236903F10043C3
:104440002361636903F10043636107F0D7FBD4F88C
:10445000A4100546606A07F0D1FBD4F8A810064600
:10446000A06A07F0CBFB05F10045A062266220465A
:10447000656200F001FB204600F0AAFB94F888304A
:1044800023B1094B1B680493049B02E0E26AA36B0F
:10449000D318E362002384F8883001200AB070BD8D
:1044A0006687FF1F9A99193F0090FF1F13B5164B9F
:1044B00004466A2190F889001B880DF10702FFF776
:1044C0004DFA08B900201DE09DF8072094F88900F6
:1044D00022F0200242F002026A218DF80720FFF745
:1044E00065FA0028EED0322002F0C0FD94F8890071
:1044F00037218222FFF75AFA0028E3D0322002F057
:10450000B5FD01201CBD00BF6687FF1F13B5144B0E
:1045100004466A2190F889001B880DF10702FFF715
:104520001DFA08B900201AE09DF8072094F88900C8
:1045300042F020026A218DF80720FFF737FA0028A1
:10454000F0D0322002F092FD94F8890037218022C9
:10455000FFF72CFA18B1322002F088FD01201CBDB3
:104560006687FF1F38B590F88B5090F89430C5F3EC
:10457000C102D21804461B2190F88900D2B2FFF77D
:1045800015FA40B194F889001A2105F00702BDE838
:104590003840FFF70BBA38BD10B504461C2190F81F
:1045A000890094F89520FFF701FA40B194F889004A
:1045B00094F88C201D21BDE81040FFF7F7B910BD1D
:1045C000436BB3F57A7F0ADC4FF47A7292FBF3F314
:1045D0005A1E90F889001921D2B2FFF7E7B90120DD
:1045E0007047426BD0F8903090F8890092FBF3F25C
:1045F000013A1F2AA8BF1F223421D2B2FFF7D6B931
:104600001FB5012380F88830036B1A79044680F8BF
:1046100089201969FFF7E2FD236B20465969FFF7EE
:104620000BFE236B2046197EFFF7EAFD236B204625
:10463000197FFFF7F3FD236B204693F82010FFF757
:1046400005FE236B204693F82410FFF727FE204633
:1046500000F0B2F994F889006B218022FFF7A6F9E7
:10466000002800F01881642002F000FD94F8890011
:104670006B210022FFF79AF9002800F00F81A74B69
:1046800094F889001B8875210DF10B02FFF766F97C
:10469000002800F006819DF80B30712B40F004815A
:1046A0002046FFF75FFF002800F001812046FFF75A
:1046B00073FF002800F0FE802046FFF781FF0028EE
:1046C00000F0FB802046FFF7F1FE002800F0F880A4
:1046D0000C200A210022FFF769F928B92046FFF7CC
:1046E00015FF6FF00B0017E10C200A210F22FFF7D6
:1046F0005DF928B92046FFF709FF6FF00C000BE1C8
:10470000864B1B880C200093102103220DEB000325
:10471000FFF7B8F828B92046FFF7F8FE6FF00D0054
:10472000FAE09DF80C0007F011FA06F0F3FD002204
:104730007B4B06F08FFC00227A4B06F03FFE0022F6
:10474000794B06F089FC07F0FBF8C4F8A0009DF84F
:104750000D0007F0FBF906F0DDFD0022704B06F0BE
:1047600079FC00226F4B06F029FE00226E4B06F00A
:1047700073FC07F0E5F8C4F8A4009DF80E0007F0FC
:10478000E5F906F0C7FD0022654B06F063FC002248
:10479000644B06F013FE0022634B06F05DFC07F04D
:1047A000CFF80A21C4F8A80000220C20FFF7FEF879
:1047B00028B92046FFF7AAFE6FF00E00ACE02046B5
:1047C000FFF7A4FE00287ED094F88900242140221F
:1047D000FFF7ECF8002879D094F8890025218C2285
:1047E000FFF7E4F8002874D094F88900262102220B
:1047F000FFF7DCF800286FD094F889002721882281
:10480000FFF7D4F800286AD094F8890028210C22F8
:10481000FFF7CCF8002865D094F8890029210A22F6
:10482000FFF7C4F8002860D094F889002A2181227B
:10483000FFF7BCF800285BD094F8890064210122BE
:10484000FFF7B4F8002856D094F8890067210322B6
:10485000FFF7ACF8002851D02046FFF7C2FE002831
:104860004FD094F889006B210122FFF79FF80028B0
:104870004AD094F889006C210022FFF797F80028AD
:1048800045D02046FFF72DFD002843D0204600F0FC
:10489000E5F8012040E04FF0FF303DE06FF003000D
:1048A0003AE06FF0040037E06FF0050034E06FF09D
:1048B000060031E06FF007002EE06FF008002BE0FB
:1048C0006FF00A0028E06FF00F0025E06FF0100095
:1048D00022E06FF011001FE06FF012001CE06FF09B
:1048E000130019E06FF0140016E06FF0150013E0EC
:1048F0006FF0160010E06FF017000DE06FF0180079
:104900000AE06FF01A0007E06FF01B0004E06FF0A0
:104910001C0001E06FF01D0004B010BD6687FF1F92
:10492000000060400000703F0000F03F014B03605A
:10493000704700BF601D010090F848007047FFFFFE
:10494000034B10B50446036004F04AF8204610BD3E
:10495000601D010038B50546B02004F03DF8294639
:104960000446FFF731FC204638BDFFFF38B5114B38
:10497000044640F8083B0D46FFF7B4F804F1140074
:10498000FFF7B0F804F12000FFF7ACF804F14C0099
:10499000FFF7A8F804F15800FFF7A4F804F17C0031
:1049A000FFF7A0F8002325632371637184F8483072
:1049B000204638BD601D01002DE9F043064689B050
:1049C0000020707101A900F0F1FB002841D09DF892
:1049D0000630012B3DD1204D6C4603AF6069043495
:1049E000616807F001F82946804607F0C3FA00B174
:1049F0004546BC42F2D12846002107F09DFA40BB53
:104A000028464FF07C5107F0F9F8354681460024DE
:104A100001AA13190434D3F810805F684046394660
:104A200006F0E2FF4FF07C5107F0E8F801464846F7
:104A300007F098F939462867404606F0D7FF4FF04F
:104A40007C5107F0DBF8043528660C2CE0D10123FB
:104A5000737109B0BDE8F083000080BF10B5044653
:104A6000406B07F077F801464FF0804007F07AF985
:104A700000232064636410BD2DE9F04300F1580564
:104A8000804695E8070085B001AC08F1140684E87B
:104A9000070031462046FFF70CF831462846FEF75E
:104AA000FFFF2046FFF7F3F8454907F045FA80B1CC
:104AB00008F10800FFF7EBF8424907F03DFA78B932
:104AC00007E001329A42C8F8442002D1012388F855
:104AD000483008F1080008F14C01FEF7EAFF6CE0ED
:104AE000D8F84090484606F015FC02460B460020D8
:104AF000354906F0AFFA0446D8F84C000D4606F0EA
:104B000009FC02460B462046294606F057FC06469D
:104B10000F464846D8F8081007F070F806F0FAFB80
:104B200002460B463046394606F096FA06F008FF74
:104B3000C8F84C00D8F8500006F0ECFB02460B46D3
:104B40002046294606F03AFC06460F464846D8F865
:104B50000C1007F053F806F0DDFB02460B4630461A
:104B6000394606F079FA06F0EBFEC8F85000D8F89E
:104B7000540006F0CFFB02460B462046294606F0BD
:104B80001DFC04460D464846D8F8101007F036F8CC
:104B900006F0C0FB02460B462046294606F05CFAAA
:104BA00006F0CEFED8F83430D8F84420C8F85400C7
:104BB00005214B439A4284DB8BE705B0BDE8F083C7
:104BC0000BD7233B0BD7233D0000F03FFFFFFFFF38
:104BD000037970B50646CBB94379BBB1006A716EF3
:104BE00006F002FF316F07F009F8B16E3062706AAB
:104BF00006F0FAFE716F07F001F8F16E7062B06AAC
:104C000006F0F2FEB16F06F0F9FFB062306A2E498D
:104C100006F0F4FF06F07EFB0446F06F0D4606F04A
:104C200079FB27A3D3E9002306F0C8FB02460B4615
:104C30002046294606F010FA06F082FE2249F06767
:104C4000706A06F0DBFF06F065FB0446D6F88000CC
:104C50000D4606F05FFB1AA3D3E9002306F0AEFB76
:104C600002460B462046294606F0F6F906F068FE95
:104C70001549C6F88000B06A06F0C0FF06F04AFB8E
:104C80000446D6F884000D4606F044FB0CA3D3E995
:104C9000002306F093FB02460B462046294606F009
:104CA000DBF906F04DFE06F17C01C6F8840006F142
:104CB0002000BDE87040FEF7F3BE00BFAFF30080F8
:104CC000000000989999E93FCDCC4C3EAFF30080AD
:104CD000704730B5012385B080F85730044600F1A5
:104CE000480501A8FEF7FEFE01A92846FEF7D8FEFA
:104CF000294604F13800FFF799F904F12C0501A8C1
:104D0000FEF7F0FE01A92846FEF7CAFE04F11C00DA
:104D10002946FFF78BF905B030BDFFFF10B50446FB
:104D20000430FFF79BF804F11C00FFF797F804F13B
:104D30002C00FEF7D7FE04F13800FFF78FF804F1DE
:104D40004800FEF7CFFE084B6361084BA3610123C7
:104D5000204684F8543084F8553084F85630FFF7F4
:104D6000B8FF204610BD00BF6F12833A6F12033A9E
:104D70002DE9F04794B0064668460C461746FFF703
:104D80006DF804A8FFF76AF896F8552006F12C0193
:104D90001AB12046FEF739FF06E0084606F1480141
:104DA000FEF77EFE0023736396F85630002B6CD01E
:104DB000F06A4FF07C5106F021FF06F0ABFA044692
:104DC0000D4603F07DFF06F0BBFD294680462046D8
:104DD00003F0C0FF06F0B4FD4FF07C518146306B0C
:104DE00006F00CFF06F096FA04460D4603F068FF45
:104DF00006F0A6FD29468246204603F0ABFF06F0EA
:104E00009FFD51460446404606F0F8FE5146049088
:104E1000484606F0F3FE21460590404606F0EEFEB9
:104E20002146069009F1004006F0E8FE00230093B9
:104E30003B68079001937B680293BB686A4608A8A9
:104E400004A90393FEF7E0FF0CA804A9FFF785F976
:104E50000CAA10A808A9FEF7D7FF10A96846FEF70C
:104E600031FF029806F056FA044601980D4606F006
:104E700051FA02460B462046294604F00BF806F08C
:104E80005FFD00F10040706301E0336D736306F174
:104E90001C0806F12C0740463946FFF7C7F8DFF833
:104EA0008C9000244FF0FF3506F11C03494653F85F
:104EB000243023F0004A504607F05CF808B1D14690
:104EC00025460134042CEFD106EB85090021D9F8E1
:104ED0001C40204607F030F828B1D9F838000021EE
:104EE00007F048F858B92046002107F043F8D0B140
:104EF00006EB85050021A86B07F01EF898B1F36951
:104F000003F10043F361336A03F100433362736AD0
:104F100003F100437362B36A03F10043B362404696
:104F20003946FEF7EDFF14B0BDE8F08700007AC403
:104F30002DE9F04F04468DB002A81E460F4690465C
:104F4000169DFEF7CFFD94F85730ABB13246A565FC
:104F50002046414604F12C05FFF70AFF04F1380012
:104F60002946FFF763F804F148002946FEF798FD4B
:104F7000002384F85730FDE0A06D281A06F0E6FD06
:104F80007E4906F0EFFEA5652060002106F0DEFFF9
:104F9000002840F0EF80414632462046FFF7E8FE09
:104FA000636CD4F838A0019394F85430D4F83C8062
:104FB000266C13B102A8394604E005A8FEF792FD5D
:104FC00002A805A9FEF76CFD02984FF07C5106F08F
:104FD00015FE4FF07C510746039806F00FFE4FF088
:104FE0007C518146049806F009FE4146834607F14C
:104FF000004006F003FE314603464846009306F0A3
:10500000FDFD009B25680146184606F0EDFC019960
:1050100003465846009306F0F1FD009B01461846F2
:1050200006F0E2FC294606F0E9FD0146504606F08E
:10503000DDFC5146A063384606F0E0FD31460346EC
:105040005846009306F0DAFD009B0146184606F02C
:10505000CDFC019903464846009306F0CFFD009B26
:105060000146184606F0C0FC294606F0C7FD014679
:10507000404606F0BBFC5146E063484606F0BEFDE4
:10508000414603465846009306F0B8FD009B014692
:10509000184606F0A9FC019903463846009306F02D
:1050A000ADFD009B0146184606F0A0FC294606F01F
:1050B000A5FD0146304606F099FC5146206458464D
:1050C00006F09CFD41468246484606F097FD0146A3
:1050D000504606F08BFC31468046384606F08EFD81
:1050E0000146404606F080FC294606F087FD014651
:1050F000019806F07BFC94F85630606408A813B958
:1051000094F8553033B104F11C0104F13802FEF774
:1051100093FE01E0FEF7A2FE04F1380508A9201D68
:10512000FEF7D0FD261D2A4608A804F11C01FEF753
:1051300083FE08A93046FEF7C5FD2168606906F0C8
:105140005DFDA169074606F051FC0146384606F0B0
:1051500009FE3146024608A8FEF762FE08A9284665
:10516000FEF7BBFD2846FEF77FFE284604F1480106
:10517000FEF7C6FE0DB0BDE8F08F00BF00007A4418
:1051800070B583004401E41AFC230B7015234B70A7
:1051900004F11C050E1B2146325D03480134FEF765
:1051A00010FCAC42F7D170BD298FFF1F70B5830092
:1051B0004401E41A00238B700D460D482146FEF78A
:1051C000FDFBFC2812D1611C0948FEF7F7FB1528EE
:1051D0000CD104F11C062D1B21460548FEF7EEFB01
:1051E00028550134B442F7D1012070BD002070BDB4
:1051F000298FFF1F7047FFFF034B10B50446036064
:10520000FBF7B2FB204610BD901D010010B504460F
:10521000FFF7F2FF204603F0E3FB204610BD006AD3
:10522000C0B201B1012101F0BBBEC979003118BF84
:105230000121FFF7F4BFFFFF37B51D4600230093A0
:1052400008230446FBF7A2FB094B012D236001D183
:10525000062300E00723236294F82000012101F0D7
:10526000CBFE20460121FBF7A9FB20463EBD00BF37
:10527000901D01007047FFFF034B10B5044603600B
:10528000FBF772FB204610BDB01D010010B50446AF
:10529000FFF7F2FF204603F0A3FB204610BDFFFFFF
:1052A000F0B587B00446FBF78DFB00284ED0712384
:1052B0008DF8003004F12007172300258DF8013008
:1052C000384641F20103ADF80230ADF8045000F069
:1052D00067F906F035FBCDF80600384600F084F992
:1052E00006F02EFB84F89950CDF80A00D4F8A000FF
:1052F00005F0FEFF0022164B06F08AF906F020FBAF
:10530000D4F8C030CDF80E00ADF81230D4F8B0307B
:1053100084F8B950ADF81430D4F8EC3084F8A950C2
:105320008DF816302E469DF801102B462A4604E0D3
:105330001DF80300121892B201338B42F8DBE069CA
:10534000ADF80420036869461B69984707B0F0BDB3
:105350000000594037B504461D4600920223002242
:10536000FBF714FB20460F4B40F8203B00F02CF8D5
:1053700015B1C4F8F85003E04FF41653C4F8F830F0
:10538000D4F8F830580800F1B76000F55840B0FB89
:10539000F3F001F0D5FF20460121FBF70FFB20467B
:1053A0003EBD00BFB01D010010B5044602F040F93B
:1053B000002808DD02F04AF9C1B204F12000BDE87E
:1053C000104000F0D3BA10BD0346002110B50224EE
:1053D000017041708180816001824161818301623D
:1053E0000185C1621973197683F8241083F830108F
:1053F00083F83810C16383F8391083F84810C1640A
:1054000083F8491083F8581001660167C0F88010CE
:1054100083F8591083F8681083F8691083F87810BE
:1054200083F8791083F8881083F88910C0F89010F9
:1054300083F8981083F89910C0F8A01080F8B9404C
:1054400083F8A81083F8A91083F8BA1083F8BB106A
:1054500083F8BC10C0F8C010C0F8C410C0F8C81061
:10546000C0F8CC10C0F8D010C0F8D41083F8AA103F
:1054700010BDA1F14103052B02D8A1F137007047FF
:10548000A1F16103052B94BFA1F15700A1F13000F8
:10549000704738B50578B5F12D035D425D4104468E
:1054A00005B1441C204606F09BFD6423434322467D
:1054B00014F8011BA1F130000928F8D92E2910D1C8
:1054C0005178A1F1300009280BD809B2C8009278B0
:1054D00000EB4101303AA1F5F0715B18092A98BF41
:1054E0009B1805B15B42184638BDFFFF38B50C4626
:1054F000054606F075FD6423B0FBF3F212492280E5
:1055000003FB12034B432846014610F8012BA2F17E
:105510003005092DF8D92E2A0CD108460A4A0A2549
:1055200003E0B2FBF5F202FB013310F8011F303942
:105530000929F6D90522534301330322B3FBF2F3C1
:1055400063600023237238BD80969800034682B0C2
:1055500053F81C2F42605A6882601B7A037303461B
:1055600053F8282F02615A6842611B7A0376054B73
:105570001B680193019B436301234370037002B0D6
:10558000704700BF0090FF1F00F11C03084619463A
:10559000FFF7ACBF00F1280308461946FFF7A6BF86
:1055A000002370B543700646808805F0A1FE0446CE
:1055B000B0680D4605F08CFE09A3D3E9002306F080
:1055C00027F802460B462046294605F045FD0B46C6
:1055D000317B024609B103F100431046194670BD04
:1055E0000000000065CDCD41002370B54370064634
:1055F000008A05F07DFE044670690D4605F068FEE0
:1056000009A3D3E9002306F003F802460B4620461F
:10561000294605F021FD0B46317E024609B103F112
:1056200000431046194670BD0000000065CDCD4115
:1056300083684360054B82B01B680193019BC36084
:1056400001234370037002B0704700BF0090FF1F3A
:1056500083684360054B82B01B680193019BC36064
:1056600001234370037002B0704700BF0090FF1F1A
:1056700010B504460846FFF70CFFA06010BD10B53A
:105680000446084606F0ACFCA06010BDC368836009
:10569000054B82B01B680193019B4360012343705B
:1056A000037002B0704700BF0090FF1F10B50446A2
:1056B0000846FFF7EEFEE06010BDFFFFC3688360A1
:1056C000054B82B01B680193019B4360012343702B
:1056D000037002B0704700BF0090FF1F10B5044672
:1056E000084606F07DFCE06010BDFFFF13B50446E0
:1056F0002146103007F050FC054B1B680193019BBD
:105700002362012384F8253084F824301CBD00BFB7
:105710000090FF1F102207F09DBCFFFF90F8A930FA
:1057200070B50446002B62D090F8AA10FFF7A1FED6
:1057300094F8AB1005462046FFF79BFE94F8A8307E
:1057400000EB0510C5B2AB424BD1D4F8D4300133D5
:10575000C4F8D43094F8BC3023B1D4F8CC30013341
:10576000C4F8CC3094F8B930B3B1012B2AD104F18C
:105770003800FFF75DFF04F14800FFF769FF94F878
:10578000BC30FBB12046FFF7E1FE04F15800FFF703
:105790007DFF04F1680013E004F14800FFF758FFB3
:1057A00094F8BC3033B12046FFF7D0FE04F1780006
:1057B000FFF76CFF04F18800FFF780FF04F1980009
:1057C000FFF764FFD4F8C450002D00F0BC80D4F87B
:1057D000C430A86A996A07F0F1FA002800F0B58091
:1057E000B1E0D4F8D0300133C4F8D0301DE090F8E7
:1057F000BA2042BB00F1AA0528465A4907F0DEFA52
:1058000008B9012308E02846574907F0D7FA10B92C
:1058100084F8B90002E0022384F8B930D4F8C0302B
:10582000C4F8C430D4F8C4600EB9002070BDB06AAA
:10583000294607F0C3FA002880F290808AE0002011
:10584000C4F8C40070BD90F8B910022960D090F877
:10585000AA30002B5CD042EA4112013A282A57D8DC
:10586000DFE802F01520252C3142494F515656569B
:1058700056565656565656565656565656565656C8
:1058800056565656151B20252C31383A3C004830C8
:1058900004F1AA01FFF7ECFE3AE0B3F14100434204
:1058A000434125E004F1AA01FFF76EFE30E0B3F1B9
:1058B00053014B424B4180F8243029E004F1AA0106
:1058C000FFF768FE24E0B3F157025342534180F8DA
:1058D00030301DE0583017E0683015E0383004F102
:1058E000AA01FFF7CCFE13E0302B94BF0023012365
:1058F00084F8BC300CE0883004F1AA01FFF7EEFE1A
:1059000006E0983000E0783004F1AA01FFF7CEFEFF
:10591000D4F8C45004F1AA0604E028463146FFF743
:10592000F9FE2D6B002D80D0D4F8C430A86A996A96
:1059300007F044FA00287FF478AFEB6A94F8BA20B5
:10594000934209DD71E7012070BD2846FFF7CEFEC6
:105950002D6B39E7336B63E7E3D1DEE77FF46FAF9D
:1059600063E700BFC81D0100CE1D010038B5D0F8A7
:10597000C8300133242904460D46C0F8C8302CD065
:1059800004D80A290CD00D2936D109E02A2907D0DC
:105990002C2931D190F8A83083F02C0380F8A8305E
:1059A00094F8BB300E2B4FF0000005D8E31883F8B5
:1059B000AA002046FFF7B2FE94F8BA30013384F80B
:1059C000BA300023B5F12A0CDCF1000555EB0C05CB
:1059D00084F8BB3084F8A95038BD0020022384F835
:1059E000BB0084F8BA0084F8A80084F8B93084F8C1
:1059F000A90084F8BC0038BD94F8BB300D2B05D845
:105A0000E218013382F8AA5084F8BB3094F8A90058
:105A100028B994F8A8305D4084F8A85038BD00201B
:105A200038BDFFFF2E4B002230B51A6090F894303D
:105A300053B9D0F890305A6802F596525A6090F8EF
:105A400099201A60012347E0012B28D190F8953066
:105A500073B100EB830290F89710526C01338B42C4
:105A600088BF0023D0F88C10A2F5965271B913E0CC
:105A700090F89640011F80F897401A4603E051F8CD
:105A8000045F01324D64A242F9D9E2E7012B01D152
:105A90000B7001E000240C7080F8953001E0D0F824
:105AA00088204EF660239A42D0F89030596806D884
:105AB0008A185A6090F898201A6000230CE001F5CB
:105AC00062419031596090F89910A2F56242903A83
:105AD0001960C0F88820022380F8943030BD00BFE0
